{
  "contractName": "BountyContract",
  "abi": [
    {
      "inputs": [
        {
          "internalType": "uint256",
          "name": "_durationInSeconds",
          "type": "uint256"
        }
      ],
      "stateMutability": "nonpayable",
      "type": "constructor"
    },
    {
      "inputs": [],
      "name": "expirationTimestamp",
      "outputs": [
        {
          "internalType": "uint256",
          "name": "",
          "type": "uint256"
        }
      ],
      "stateMutability": "view",
      "type": "function",
      "constant": true
    },
    {
      "inputs": [],
      "name": "isExpired",
      "outputs": [
        {
          "internalType": "bool",
          "name": "",
          "type": "bool"
        }
      ],
      "stateMutability": "view",
      "type": "function",
      "constant": true
    },
    {
      "inputs": [],
      "name": "owner",
      "outputs": [
        {
          "internalType": "address",
          "name": "",
          "type": "address"
        }
      ],
      "stateMutability": "view",
      "type": "function",
      "constant": true
    },
    {
      "inputs": [],
      "name": "totalFunds",
      "outputs": [
        {
          "internalType": "uint256",
          "name": "",
          "type": "uint256"
        }
      ],
      "stateMutability": "view",
      "type": "function",
      "constant": true
    },
    {
      "inputs": [
        {
          "internalType": "uint256",
          "name": "",
          "type": "uint256"
        }
      ],
      "name": "userAddresses",
      "outputs": [
        {
          "internalType": "address",
          "name": "",
          "type": "address"
        }
      ],
      "stateMutability": "view",
      "type": "function",
      "constant": true
    },
    {
      "inputs": [
        {
          "internalType": "address",
          "name": "",
          "type": "address"
        }
      ],
      "name": "users",
      "outputs": [
        {
          "internalType": "address",
          "name": "userAddress",
          "type": "address"
        },
        {
          "internalType": "uint256",
          "name": "amount",
          "type": "uint256"
        },
        {
          "internalType": "bool",
          "name": "canWithdraw",
          "type": "bool"
        }
      ],
      "stateMutability": "view",
      "type": "function",
      "constant": true
    },
    {
      "inputs": [],
      "name": "addFunds",
      "outputs": [],
      "stateMutability": "payable",
      "type": "function",
      "payable": true
    },
    {
      "inputs": [],
      "name": "setExpiration",
      "outputs": [],
      "stateMutability": "nonpayable",
      "type": "function"
    },
    {
      "inputs": [],
      "name": "distributeFunds",
      "outputs": [],
      "stateMutability": "nonpayable",
      "type": "function"
    },
    {
      "inputs": [
        {
          "internalType": "bool",
          "name": "_canWithdraw",
          "type": "bool"
        }
      ],
      "name": "markUserForWithdrawal",
      "outputs": [],
      "stateMutability": "nonpayable",
      "type": "function"
    }
  ],
  "bytecode": "0x60806040523480156200001157600080fd5b50604051620012ba380380620012ba8339818101604052810190620000379190620000c4565b336000806101000a81548173ffffffffffffffffffffffffffffffffffffffff021916908373ffffffffffffffffffffffffffffffffffffffff1602179055508042620000859190620000f0565b6001819055506000600260006101000a81548160ff02191690831515021790555050620001a0565b600081519050620000be8162000186565b92915050565b600060208284031215620000d757600080fd5b6000620000e784828501620000ad565b91505092915050565b6000620000fd826200014d565b91506200010a836200014d565b9250827fffffffffffffffffffffffffffffffffffffffffffffffffffffffffffffffff0382111562000142576200014162000157565b5b828201905092915050565b6000819050919050565b7f4e487b7100000000000000000000000000000000000000000000000000000000600052601160045260246000fd5b62000191816200014d565b81146200019d57600080fd5b50565b61110a80620001b06000396000f3fe6080604052600436106100915760003560e01c8063968ed60011610059578063968ed600146101695780639f43ddd214610194578063a26759cb146101bf578063a87430ba146101c9578063d82cb16f1461020857610091565b80632f13b60c146100965780633a6a4d2e146100c1578063502c9bd5146100d8578063712f488b146101155780638da5cb5b1461013e575b600080fd5b3480156100a257600080fd5b506100ab61021f565b6040516100b89190610db8565b60405180910390f35b3480156100cd57600080fd5b506100d6610232565b005b3480156100e457600080fd5b506100ff60048036038101906100fa9190610b44565b6105e5565b60405161010c9190610d66565b60405180910390f35b34801561012157600080fd5b5061013c60048036038101906101379190610b1b565b610624565b005b34801561014a57600080fd5b50610153610753565b6040516101609190610d66565b60405180910390f35b34801561017557600080fd5b5061017e610777565b60405161018b9190610e93565b60405180910390f35b3480156101a057600080fd5b506101a961077d565b6040516101b69190610e93565b60405180910390f35b6101c7610783565b005b3480156101d557600080fd5b506101f060048036038101906101eb9190610af2565b61096c565b6040516101ff93929190610d81565b60405180910390f35b34801561021457600080fd5b5061021d6109c3565b005b600260009054906101000a900460ff1681565b600154421015610277576040517f08c379a000000000000000000000000000000000000000000000000000000000815260040161026e90610e13565b60405180910390fd5b60008054906101000a900473ffffffffffffffffffffffffffffffffffffffff1673ffffffffffffffffffffffffffffffffffffffff163373ffffffffffffffffffffffffffffffffffffffff1614610305576040517f08c379a00000000000000000000000000000000000000000000000000000000081526004016102fc90610e73565b60405180910390fd5b600260009054906101000a900460ff16610354576040517f08c379a000000000000000000000000000000000000000000000000000000000815260040161034b90610df3565b60405180910390fd5b60008060005b60058054905081101561046257600060046000600584815481106103a7577f4e487b7100000000000000000000000000000000000000000000000000000000600052603260045260246000fd5b9060005260206000200160009054906101000a900473ffffffffffffffffffffffffffffffffffffffff1673ffffffffffffffffffffffffffffffffffffffff1673ffffffffffffffffffffffffffffffffffffffff16815260200190815260200160002090508060020160009054906101000a900460ff1661043b578060010154846104349190610ebf565b935061044e565b80600101548361044b9190610ebf565b92505b50808061045a90610fe8565b91505061035a565b5060005b6005805490508110156105e057600060046000600584815481106104b3577f4e487b7100000000000000000000000000000000000000000000000000000000600052603260045260246000fd5b9060005260206000200160009054906101000a900473ffffffffffffffffffffffffffffffffffffffff1673ffffffffffffffffffffffffffffffffffffffff1673ffffffffffffffffffffffffffffffffffffffff16815260200190815260200160002090508060020160009054906101000a900460ff16156105cc576000838260010154866105449190610f46565b61054e9190610f15565b826001015461055d9190610ebf565b90508160000160009054906101000a900473ffffffffffffffffffffffffffffffffffffffff1673ffffffffffffffffffffffffffffffffffffffff166108fc829081150290604051600060405180830381858888f193505050501580156105c9573d6000803e3d6000fd5b50505b5080806105d890610fe8565b915050610466565b505050565b600581815481106105f557600080fd5b906000526020600020016000915054906101000a900473ffffffffffffffffffffffffffffffffffffffff1681565b600073ffffffffffffffffffffffffffffffffffffffff16600460003373ffffffffffffffffffffffffffffffffffffffff1673ffffffffffffffffffffffffffffffffffffffff16815260200190815260200160002060000160009054906101000a900473ffffffffffffffffffffffffffffffffffffffff1673ffffffffffffffffffffffffffffffffffffffff1614156106f6576040517f08c379a00000000000000000000000000000000000000000000000000000000081526004016106ed90610e53565b60405180910390fd5b80600460003373ffffffffffffffffffffffffffffffffffffffff1673ffffffffffffffffffffffffffffffffffffffff16815260200190815260200160002060020160006101000a81548160ff02191690831515021790555050565b60008054906101000a900473ffffffffffffffffffffffffffffffffffffffff1681565b60035481565b60015481565b60015442106107c7576040517f08c379a00000000000000000000000000000000000000000000000000000000081526004016107be90610dd3565b60405180910390fd5b6000600460003373ffffffffffffffffffffffffffffffffffffffff1673ffffffffffffffffffffffffffffffffffffffff1681526020019081526020016000209050600073ffffffffffffffffffffffffffffffffffffffff168160000160009054906101000a900473ffffffffffffffffffffffffffffffffffffffff1673ffffffffffffffffffffffffffffffffffffffff16141561093457338160000160006101000a81548173ffffffffffffffffffffffffffffffffffffffff021916908373ffffffffffffffffffffffffffffffffffffffff16021790555034816001018190555060018160020160006101000a81548160ff0219169083151502179055506005339080600181540180825580915050600190039060005260206000200160009091909190916101000a81548173ffffffffffffffffffffffffffffffffffffffff021916908373ffffffffffffffffffffffffffffffffffffffff160217905550610950565b348160010160008282546109489190610ebf565b925050819055505b34600360008282546109629190610ebf565b9250508190555050565b60046020528060005260406000206000915090508060000160009054906101000a900473ffffffffffffffffffffffffffffffffffffffff16908060010154908060020160009054906101000a900460ff16905083565b60008054906101000a900473ffffffffffffffffffffffffffffffffffffffff1673ffffffffffffffffffffffffffffffffffffffff163373ffffffffffffffffffffffffffffffffffffffff1614610a51576040517f08c379a0000000000000000000000000000000000000000000000000000000008152600401610a4890610e73565b60405180910390fd5b600154421015610a96576040517f08c379a0000000000000000000000000000000000000000000000000000000008152600401610a8d90610e33565b60405180910390fd5b6001600260006101000a81548160ff021916908315150217905550565b600081359050610ac28161108f565b92915050565b600081359050610ad7816110a6565b92915050565b600081359050610aec816110bd565b92915050565b600060208284031215610b0457600080fd5b6000610b1284828501610ab3565b91505092915050565b600060208284031215610b2d57600080fd5b6000610b3b84828501610ac8565b91505092915050565b600060208284031215610b5657600080fd5b6000610b6484828501610add565b91505092915050565b610b7681610fa0565b82525050565b610b8581610fb2565b82525050565b6000610b98601483610eae565b91507f436f6e74726163742068617320657870697265640000000000000000000000006000830152602082019050919050565b6000610bd8602783610eae565b91507f436f6e747261637420686173206e6f74206265656e206d61726b65642061732060008301527f65787069726564000000000000000000000000000000000000000000000000006020830152604082019050919050565b6000610c3e601c83610eae565b91507f436f6e747261637420686173206e6f74207965742065787069726564000000006000830152602082019050919050565b6000610c7e602383610eae565b91507f45787069726174696f6e2074696d6520686173206e6f7420796574207265616360008301527f68656400000000000000000000000000000000000000000000000000000000006020830152604082019050919050565b6000610ce4601383610eae565b91507f5573657220646f6573206e6f74206578697374000000000000000000000000006000830152602082019050919050565b6000610d24601683610eae565b91507f4e6f742074686520636f6e7472616374206f776e6572000000000000000000006000830152602082019050919050565b610d6081610fde565b82525050565b6000602082019050610d7b6000830184610b6d565b92915050565b6000606082019050610d966000830186610b6d565b610da36020830185610d57565b610db06040830184610b7c565b949350505050565b6000602082019050610dcd6000830184610b7c565b92915050565b60006020820190508181036000830152610dec81610b8b565b9050919050565b60006020820190508181036000830152610e0c81610bcb565b9050919050565b60006020820190508181036000830152610e2c81610c31565b9050919050565b60006020820190508181036000830152610e4c81610c71565b9050919050565b60006020820190508181036000830152610e6c81610cd7565b9050919050565b60006020820190508181036000830152610e8c81610d17565b9050919050565b6000602082019050610ea86000830184610d57565b92915050565b600082825260208201905092915050565b6000610eca82610fde565b9150610ed583610fde565b9250827fffffffffffffffffffffffffffffffffffffffffffffffffffffffffffffffff03821115610f0a57610f09611031565b5b828201905092915050565b6000610f2082610fde565b9150610f2b83610fde565b925082610f3b57610f3a611060565b5b828204905092915050565b6000610f5182610fde565b9150610f5c83610fde565b9250817fffffffffffffffffffffffffffffffffffffffffffffffffffffffffffffffff0483118215151615610f9557610f94611031565b5b828202905092915050565b6000610fab82610fbe565b9050919050565b60008115159050919050565b600073ffffffffffffffffffffffffffffffffffffffff82169050919050565b6000819050919050565b6000610ff382610fde565b91507fffffffffffffffffffffffffffffffffffffffffffffffffffffffffffffffff82141561102657611025611031565b5b600182019050919050565b7f4e487b7100000000000000000000000000000000000000000000000000000000600052601160045260246000fd5b7f4e487b7100000000000000000000000000000000000000000000000000000000600052601260045260246000fd5b61109881610fa0565b81146110a357600080fd5b50565b6110af81610fb2565b81146110ba57600080fd5b50565b6110c681610fde565b81146110d157600080fd5b5056fea2646970667358221220f2990064df2a6855228f651a6ef411a36caddf17580100fa6cf22f1e4a91461764736f6c63430008000033",
  "immutableReferences": {},
  "source": "// SPDX-License-Identifier: MIT\r\npragma solidity ^0.8.0;\r\n\r\ncontract BountyContract {\r\n    address public owner;\r\n    uint256 public expirationTimestamp;\r\n    bool public isExpired;\r\n    uint256 public totalFunds;\r\n\r\n    struct User {\r\n        address userAddress;\r\n        uint256 amount;\r\n        bool canWithdraw;\r\n    }\r\n\r\n    mapping(address => User) public users;\r\n    address[] public userAddresses;\r\n\r\n    constructor(uint256 _durationInSeconds) {\r\n        owner = msg.sender;\r\n        expirationTimestamp = block.timestamp + _durationInSeconds;\r\n        isExpired = false;\r\n    }\r\n\r\n    modifier onlyOwner() {\r\n        require(msg.sender == owner, \"Not the contract owner\");\r\n        _;\r\n    }\r\n\r\n    modifier beforeExpiration() {\r\n        require(block.timestamp < expirationTimestamp, \"Contract has expired\");\r\n        _;\r\n    }\r\n\r\n    modifier afterExpiration() {\r\n        require(block.timestamp >= expirationTimestamp, \"Contract has not yet expired\");\r\n        _;\r\n    }\r\n\r\n    function addFunds() public payable beforeExpiration {\r\n        User storage user = users[msg.sender];\r\n\r\n        if (user.userAddress == address(0)) {\r\n            user.userAddress = msg.sender;\r\n            user.amount = msg.value;\r\n            user.canWithdraw = true;\r\n            userAddresses.push(msg.sender);\r\n        } else {\r\n            user.amount += msg.value;\r\n        }\r\n\r\n        totalFunds += msg.value;\r\n    }\r\n\r\n    function setExpiration() public onlyOwner {\r\n        require(block.timestamp >= expirationTimestamp, \"Expiration time has not yet reached\");\r\n        isExpired = true;\r\n    }\r\n\r\n    function distributeFunds() public afterExpiration onlyOwner {\r\n        require(isExpired, \"Contract has not been marked as expired\");\r\n\r\n        uint256 totalFalseAmount = 0;\r\n        uint256 totalTrueAmount = 0;\r\n\r\n        for (uint256 i = 0; i < userAddresses.length; i++) {\r\n            User storage user = users[userAddresses[i]];\r\n            if (!user.canWithdraw) {\r\n                totalFalseAmount += user.amount;\r\n            } else {\r\n                totalTrueAmount += user.amount;\r\n            }\r\n        }\r\n\r\n        for (uint256 i = 0; i < userAddresses.length; i++) {\r\n            User storage user = users[userAddresses[i]];\r\n            if (user.canWithdraw) {\r\n                uint256 reward = user.amount + (totalFalseAmount * user.amount / totalTrueAmount);\r\n                payable(user.userAddress).transfer(reward);\r\n            }\r\n        }\r\n    }\r\n\r\n    function markUserForWithdrawal(bool _canWithdraw) public {\r\n        require(users[msg.sender].userAddress != address(0), \"User does not exist\");\r\n        users[msg.sender].canWithdraw = _canWithdraw;\r\n    }\r\n}",
  "sourcePath": "/mnt/c/Users/anwar/OneDrive/Documents/SENG-Labs/HawkhacksHackathon/HawkHacks2024/AnwarTest/contracts/BountyContract.sol",
  "compiler": {
    "name": "solc",
    "version": "0.8.0+commit.c7dfd78e.Emscripten.clang"
  },
  "schemaVersion": "3.4.16",
  "updatedAt": "2024-05-19T10:43:35.655Z",
  "networkType": "ethereum",
  "devdoc": {
    "kind": "dev",
    "methods": {},
    "version": 1
  },
  "userdoc": {
    "kind": "user",
    "methods": {},
    "version": 1
  }
}